{
  "contractName": "ProxyCall",
  "abi": [
    {
      "constant": true,
      "inputs": [],
      "name": "version",
      "outputs": [
        {
          "name": "",
          "type": "uint256"
        }
      ],
      "payable": false,
      "stateMutability": "view",
      "type": "function"
    },
    {
      "constant": true,
      "inputs": [],
      "name": "owner",
      "outputs": [
        {
          "name": "",
          "type": "address"
        }
      ],
      "payable": false,
      "stateMutability": "view",
      "type": "function"
    },
    {
      "constant": true,
      "inputs": [],
      "name": "delegate",
      "outputs": [
        {
          "name": "",
          "type": "address"
        }
      ],
      "payable": false,
      "stateMutability": "view",
      "type": "function"
    },
    {
      "inputs": [
        {
          "name": "delegateAddress",
          "type": "address"
        }
      ],
      "payable": false,
      "stateMutability": "nonpayable",
      "type": "constructor"
    },
    {
      "payable": false,
      "stateMutability": "nonpayable",
      "type": "fallback"
    },
    {
      "anonymous": false,
      "inputs": [
        {
          "indexed": false,
          "name": "result",
          "type": "bytes"
        }
      ],
      "name": "LogResult",
      "type": "event"
    }
  ],
  "bytecode": "0x608060405234801561001057600080fd5b5060405160208061043f8339810180604052602081101561003057600080fd5b810190808051906020019092919050505033600160006101000a81548173ffffffffffffffffffffffffffffffffffffffff021916908373ffffffffffffffffffffffffffffffffffffffff16021790555080600260006101000a81548173ffffffffffffffffffffffffffffffffffffffff021916908373ffffffffffffffffffffffffffffffffffffffff1602179055505061036c806100d36000396000f3fe608060405260043610610057576000357c0100000000000000000000000000000000000000000000000000000000900463ffffffff16806354fd4d50146102155780638da5cb5b14610240578063c89e436114610297575b34801561006357600080fd5b5060006060600260009054906101000a900473ffffffffffffffffffffffffffffffffffffffff1673ffffffffffffffffffffffffffffffffffffffff166000366040518083838082843780830192505050925050506000604051808303816000865af19150503d80600081146100f6576040519150601f19603f3d011682016040523d82523d6000602084013e6100fb565b606091505b5091509150811515610175576040517f08c379a00000000000000000000000000000000000000000000000000000000081526004018080602001828103825260148152602001807f65787465726e616c2063616c6c206661696c656400000000000000000000000081525060200191505060405180910390fd5b7f958c0193cea72acb1ba51b31092fb4edff6e5bf84a2289db7e76bea413645df3816040518080602001828103825283818151815260200191508051906020019080838360005b838110156101d75780820151818401526020810190506101bc565b50505050905090810190601f1680156102045780820380516001836020036101000a031916815260200191505b509250505060405180910390a15050005b34801561022157600080fd5b5061022a6102ee565b6040518082815260200191505060405180910390f35b34801561024c57600080fd5b506102556102f4565b604051808273ffffffffffffffffffffffffffffffffffffffff1673ffffffffffffffffffffffffffffffffffffffff16815260200191505060405180910390f35b3480156102a357600080fd5b506102ac61031a565b604051808273ffffffffffffffffffffffffffffffffffffffff1673ffffffffffffffffffffffffffffffffffffffff16815260200191505060405180910390f35b60005481565b600160009054906101000a900473ffffffffffffffffffffffffffffffffffffffff1681565b600260009054906101000a900473ffffffffffffffffffffffffffffffffffffffff168156fea165627a7a7230582010e7e5c39df8d5f23af2255a9384a29d08835846458d8ddd6af435e093f2e06e0029",
  "source": "pragma solidity ^0.5.0;\r\n\r\ncontract ProxyCall {\r\n    uint256 public version;\r\n    address public owner;\r\n    address public delegate;  // contract to delegate calls to\r\n    \r\n    event LogResult(bytes result);\r\n\r\n    constructor(address delegateAddress) public {\r\n        owner = msg.sender;\r\n        delegate = delegateAddress;\r\n        }\r\n\r\n    function() external {\r\n        (bool success, bytes memory returnData) = delegate.call(msg.data);\r\n        require(success, \"external call failed\");\r\n        emit LogResult(returnData);\r\n    }\r\n    }",
  "sourcePath": "C:/Users/sharm/OneDrive/Documents/Blockchain Development Program/Advanced smart contracts/proxy-delegate/contracts/ProxyCall.sol",
  "compiler": {
    "name": "solc",
    "version": "0.5.0+commit.1d4f565a.Emscripten.clang"
  },
  "schemaVersion": "3.0.2",
  "updatedAt": "2020-07-11T01:45:01.097Z",
  "devdoc": {
    "methods": {}
  },
  "userdoc": {
    "methods": {}
  }
}