{
  "contractName": "SomeLibrary",
  "abi": [
    {
      "constant": true,
      "inputs": [],
      "name": "version",
      "outputs": [
        {
          "name": "",
          "type": "uint256"
        }
      ],
      "payable": false,
      "stateMutability": "view",
      "type": "function"
    },
    {
      "constant": false,
      "inputs": [
        {
          "name": "newVersion",
          "type": "uint256"
        }
      ],
      "name": "setVersion",
      "outputs": [],
      "payable": false,
      "stateMutability": "nonpayable",
      "type": "function"
    },
    {
      "constant": true,
      "inputs": [],
      "name": "getMsgSender",
      "outputs": [
        {
          "name": "",
          "type": "address"
        }
      ],
      "payable": false,
      "stateMutability": "view",
      "type": "function"
    }
  ],
  "bytecode": "0x6080604052600160005534801561001557600080fd5b5061015d806100256000396000f3fe608060405260043610610057576000357c0100000000000000000000000000000000000000000000000000000000900463ffffffff168063408def1e1461005c57806354fd4d50146100975780637a6ce2e1146100c2575b600080fd5b34801561006857600080fd5b506100956004803603602081101561007f57600080fd5b8101908080359060200190929190505050610119565b005b3480156100a357600080fd5b506100ac610123565b6040518082815260200191505060405180910390f35b3480156100ce57600080fd5b506100d7610129565b604051808273ffffffffffffffffffffffffffffffffffffffff1673ffffffffffffffffffffffffffffffffffffffff16815260200191505060405180910390f35b8060008190555050565b60005481565b60003390509056fea165627a7a723058203287a776738919d62868c9cbe909f25a9fae8294881da4a86bfa93fa35d877b70029",
  "source": "pragma solidity ^0.5.0;\r\n\r\ncontract SomeLibrary {\r\n    uint public version = 1;\r\n\r\n    function setVersion(uint newVersion) public {\r\n        version = newVersion;\r\n    }\r\n\r\n    function getMsgSender() public view returns(address){\r\n        return msg.sender;\r\n    }\r\n}",
  "sourcePath": "C:/Users/sharm/OneDrive/Documents/Blockchain Development Program/Advanced smart contracts/proxy-delegate/contracts/SomeLibrary.sol",
  "compiler": {
    "name": "solc",
    "version": "0.5.0+commit.1d4f565a.Emscripten.clang"
  },
  "schemaVersion": "3.0.2",
  "updatedAt": "2020-07-11T01:45:01.098Z",
  "devdoc": {
    "methods": {}
  },
  "userdoc": {
    "methods": {}
  }
}